{
  "_format": "hh-sol-artifact-1",
  "contractName": "AquaIntel",
  "sourceName": "contracts/AquaIntel.sol",
  "abi": [
    {
      "inputs": [],
      "stateMutability": "nonpayable",
      "type": "constructor"
    },
    {
      "anonymous": false,
      "inputs": [
        {
          "indexed": true,
          "internalType": "uint256",
          "name": "id",
          "type": "uint256"
        },
        {
          "indexed": false,
          "internalType": "string",
          "name": "status",
          "type": "string"
        },
        {
          "indexed": false,
          "internalType": "uint256",
          "name": "quality",
          "type": "uint256"
        },
        {
          "indexed": false,
          "internalType": "string",
          "name": "locationName",
          "type": "string"
        },
        {
          "indexed": false,
          "internalType": "uint256",
          "name": "timestamp",
          "type": "uint256"
        }
      ],
      "name": "ScanLogged",
      "type": "event"
    },
    {
      "inputs": [
        {
          "internalType": "uint256",
          "name": "_id",
          "type": "uint256"
        }
      ],
      "name": "getScan",
      "outputs": [
        {
          "components": [
            {
              "internalType": "uint256",
              "name": "id",
              "type": "uint256"
            },
            {
              "internalType": "string",
              "name": "status",
              "type": "string"
            },
            {
              "internalType": "uint256",
              "name": "quality",
              "type": "uint256"
            },
            {
              "internalType": "string",
              "name": "locationName",
              "type": "string"
            },
            {
              "internalType": "uint256",
              "name": "timestamp",
              "type": "uint256"
            }
          ],
          "internalType": "struct AquaIntel.WaterScan",
          "name": "",
          "type": "tuple"
        }
      ],
      "stateMutability": "view",
      "type": "function"
    },
    {
      "inputs": [],
      "name": "getTotalScans",
      "outputs": [
        {
          "internalType": "uint256",
          "name": "",
          "type": "uint256"
        }
      ],
      "stateMutability": "view",
      "type": "function"
    },
    {
      "inputs": [
        {
          "internalType": "string",
          "name": "_status",
          "type": "string"
        },
        {
          "internalType": "uint256",
          "name": "_quality",
          "type": "uint256"
        },
        {
          "internalType": "string",
          "name": "_locationName",
          "type": "string"
        }
      ],
      "name": "logScan",
      "outputs": [
        {
          "internalType": "uint256",
          "name": "",
          "type": "uint256"
        }
      ],
      "stateMutability": "nonpayable",
      "type": "function"
    },
    {
      "inputs": [],
      "name": "owner",
      "outputs": [
        {
          "internalType": "address",
          "name": "",
          "type": "address"
        }
      ],
      "stateMutability": "view",
      "type": "function"
    },
    {
      "inputs": [
        {
          "internalType": "uint256",
          "name": "",
          "type": "uint256"
        }
      ],
      "name": "scans",
      "outputs": [
        {
          "internalType": "uint256",
          "name": "id",
          "type": "uint256"
        },
        {
          "internalType": "string",
          "name": "status",
          "type": "string"
        },
        {
          "internalType": "uint256",
          "name": "quality",
          "type": "uint256"
        },
        {
          "internalType": "string",
          "name": "locationName",
          "type": "string"
        },
        {
          "internalType": "uint256",
          "name": "timestamp",
          "type": "uint256"
        }
      ],
      "stateMutability": "view",
      "type": "function"
    }
  ],
  "bytecode": "0x608060405234801561001057600080fd5b5033600160006101000a81548173ffffffffffffffffffffffffffffffffffffffff021916908373ffffffffffffffffffffffffffffffffffffffff160217905550610d8f806100616000396000f3fe608060405234801561001057600080fd5b50600436106100575760003560e01c806364f97de51461005c5780638da5cb5b1461008c578063994907b0146100aa578063c4e677f5146100c8578063f95dc830146100fc575b600080fd5b6100766004803603810190610071919061059d565b61012c565b60405161008391906106e6565b60405180910390f35b6100946102aa565b6040516100a19190610749565b60405180910390f35b6100b26102d0565b6040516100bf9190610773565b60405180910390f35b6100e260048036038101906100dd919061059d565b6102dc565b6040516100f39594939291906107d8565b60405180910390f35b6101166004803603810190610111919061096e565b610432565b6040516101239190610773565b60405180910390f35b610134610524565b60008281548110610148576101476109f9565b5b90600052602060002090600502016040518060a00160405290816000820154815260200160018201805461017b90610a57565b80601f01602080910402602001604051908101604052809291908181526020018280546101a790610a57565b80156101f45780601f106101c9576101008083540402835291602001916101f4565b820191906000526020600020905b8154815290600101906020018083116101d757829003601f168201915b505050505081526020016002820154815260200160038201805461021790610a57565b80601f016020809104026020016040519081016040528092919081815260200182805461024390610a57565b80156102905780601f1061026557610100808354040283529160200191610290565b820191906000526020600020905b81548152906001019060200180831161027357829003601f168201915b505050505081526020016004820154815250509050919050565b600160009054906101000a900473ffffffffffffffffffffffffffffffffffffffff1681565b60008080549050905090565b600081815481106102ec57600080fd5b906000526020600020906005020160009150905080600001549080600101805461031590610a57565b80601f016020809104026020016040519081016040528092919081815260200182805461034190610a57565b801561038e5780601f106103635761010080835404028352916020019161038e565b820191906000526020600020905b81548152906001019060200180831161037157829003601f168201915b5050505050908060020154908060030180546103a990610a57565b80601f01602080910402602001604051908101604052809291908181526020018280546103d590610a57565b80156104225780601f106103f757610100808354040283529160200191610422565b820191906000526020600020905b81548152906001019060200180831161040557829003601f168201915b5050505050908060040154905085565b600080600080549050905060006040518060a001604052808381526020018781526020018681526020018581526020014281525090806001815401808255809150506001900390600052602060002090600502016000909190919091506000820151816000015560208201518160010190816104ae9190610c34565b506040820151816002015560608201518160030190816104ce9190610c34565b50608082015181600401555050807f5db4c13b3964fb0c9fbfa75785c40cc83531fdc97e817636b8e98f6bbfeb0798868686426040516105119493929190610d06565b60405180910390a2809150509392505050565b6040518060a0016040528060008152602001606081526020016000815260200160608152602001600081525090565b6000604051905090565b600080fd5b600080fd5b6000819050919050565b61057a81610567565b811461058557600080fd5b50565b60008135905061059781610571565b92915050565b6000602082840312156105b3576105b261055d565b5b60006105c184828501610588565b91505092915050565b6105d381610567565b82525050565b600081519050919050565b600082825260208201905092915050565b60005b838110156106135780820151818401526020810190506105f8565b60008484015250505050565b6000601f19601f8301169050919050565b600061063b826105d9565b61064581856105e4565b93506106558185602086016105f5565b61065e8161061f565b840191505092915050565b600060a08301600083015161068160008601826105ca565b50602083015184820360208601526106998282610630565b91505060408301516106ae60408601826105ca565b50606083015184820360608601526106c68282610630565b91505060808301516106db60808601826105ca565b508091505092915050565b600060208201905081810360008301526107008184610669565b905092915050565b600073ffffffffffffffffffffffffffffffffffffffff82169050919050565b600061073382610708565b9050919050565b61074381610728565b82525050565b600060208201905061075e600083018461073a565b92915050565b61076d81610567565b82525050565b60006020820190506107886000830184610764565b92915050565b600082825260208201905092915050565b60006107aa826105d9565b6107b4818561078e565b93506107c48185602086016105f5565b6107cd8161061f565b840191505092915050565b600060a0820190506107ed6000830188610764565b81810360208301526107ff818761079f565b905061080e6040830186610764565b8181036060830152610820818561079f565b905061082f6080830184610764565b9695505050505050565b600080fd5b600080fd5b7f4e487b7100000000000000000000000000000000000000000000000000000000600052604160045260246000fd5b61087b8261061f565b810181811067ffffffffffffffff8211171561089a57610899610843565b5b80604052505050565b60006108ad610553565b90506108b98282610872565b919050565b600067ffffffffffffffff8211156108d9576108d8610843565b5b6108e28261061f565b9050602081019050919050565b82818337600083830152505050565b600061091161090c846108be565b6108a3565b90508281526020810184848401111561092d5761092c61083e565b5b6109388482856108ef565b509392505050565b600082601f83011261095557610954610839565b5b81356109658482602086016108fe565b91505092915050565b6000806000606084860312156109875761098661055d565b5b600084013567ffffffffffffffff8111156109a5576109a4610562565b5b6109b186828701610940565b93505060206109c286828701610588565b925050604084013567ffffffffffffffff8111156109e3576109e2610562565b5b6109ef86828701610940565b9150509250925092565b7f4e487b7100000000000000000000000000000000000000000000000000000000600052603260045260246000fd5b7f4e487b7100000000000000000000000000000000000000000000000000000000600052602260045260246000fd5b60006002820490506001821680610a6f57607f821691505b602082108103610a8257610a81610a28565b5b50919050565b60008190508160005260206000209050919050565b60006020601f8301049050919050565b600082821b905092915050565b600060088302610aea7fffffffffffffffffffffffffffffffffffffffffffffffffffffffffffffffff82610aad565b610af48683610aad565b95508019841693508086168417925050509392505050565b6000819050919050565b6000610b31610b2c610b2784610567565b610b0c565b610567565b9050919050565b6000819050919050565b610b4b83610b16565b610b5f610b5782610b38565b848454610aba565b825550505050565b600090565b610b74610b67565b610b7f818484610b42565b505050565b5b81811015610ba357610b98600082610b6c565b600181019050610b85565b5050565b601f821115610be857610bb981610a88565b610bc284610a9d565b81016020851015610bd1578190505b610be5610bdd85610a9d565b830182610b84565b50505b505050565b600082821c905092915050565b6000610c0b60001984600802610bed565b1980831691505092915050565b6000610c248383610bfa565b9150826002028217905092915050565b610c3d826105d9565b67ffffffffffffffff811115610c5657610c55610843565b5b610c608254610a57565b610c6b828285610ba7565b600060209050601f831160018114610c9e5760008415610c8c578287015190505b610c968582610c18565b865550610cfe565b601f198416610cac86610a88565b60005b82811015610cd457848901518255600182019150602085019450602081019050610caf565b86831015610cf15784890151610ced601f891682610bfa565b8355505b6001600288020188555050505b505050505050565b60006080820190508181036000830152610d20818761079f565b9050610d2f6020830186610764565b8181036040830152610d41818561079f565b9050610d506060830184610764565b9594505050505056fea26469706673582212209ab1306158d55e33f90afb9de3d896bcb655714bd0b2d3d66f4b6467e2841afe64736f6c63430008130033",
  "linkReferences": {},
  "deployedLinkReferences": {}
}